:100000002EC151C150C1E1C34EC14DC14CC14BC104
:100010004AC149C148C147C146C139C4E9C3522D8B
:1000200050690100030033020000010000002A00B3
:100030000000E3B0BF27E7FC80980E4CBCCE909048
:100040002DC3010001000E044D69636861656C20D9
:1000500042756573636850694C43C7C30200010071
:100060002000000000000000E4E4C0C0C0C0C0C028
:10007000C0C0C0C0E4E4C0C0C1C0C0C0C0C0C0C037
:10008000C0C0C07E03000200C5010000D00DFEED1F
:10009000000001C3000000380000017000000028CB
:1000A00000000011000000100000000000000053DC
:1000B0000000013800000000000000000000000007
:1000C000000000000000000100000000000000032C
:1000D0000000000D000000006272636D2C62636D11
:1000E000323730380000000000000001667261679E
:1000F0006D656E74403000000000000300000004D5
:100100000000000BDEADBEEF000000015F5F6F7608
:1001100065726C61795F5F000000000300000004FD
:1001200000000012000000010000000300000004B5
:100130000000002100000000000000030000000596
:100140000000002D6F6B61790000000000000001CD
:10015000727633303239403536000000000000033B
:1001600000000014000000006D6963726F63727913
:100170007374616C2C7276333032390000000003E6
:1001800000000004000000340000005600000003DE
:100190000000000400000038000003E80000000335
:1001A000000000050000002D6F6B61790000000069
:1001B0000000000200000002000000020000000138
:1001C0005F5F6669787570735F5F00000000000311
:1001D000000000150000004E2F667261676D656EAD
:1001E0007440303A7461726765743A300000000000
:1001F000000000020000000200000009636F6D7043
:10020000617469626C650074617267657400236172
:100210006464726573732D63656C6C73002373691A
:100220007A652D63656C6C7300737461747573000B
:1002300072656700747269636B6C652D72657369B2
:1002400073746F722D6F686D73006932633100854E
:1002500057EA02AE02AE03540321030C030011243B
:100260001FBECFE5D2E0DEBFCDBF14BE9CE088E16B
:100270000FB6F894A89581BD0FBE91BD10E0A0E621
:10028000B0E0EAE8FAE002C005900D92AC39B1079F
:10029000D9F720E0ACE9B0E001C01D92AA3BB2075B
:1002A000E1F714D3F0C3ACCE2F923F924F925F92FE
:1002B0006F927F92AF92BF92CF92DF92EF92FF92B6
:1002C0000F931F93CF93DF939093B9008093B8005F
:1002D0008730910518F0EC01269702C0C0E0D0E00D
:1002E00097E0A92EB12C20E4C22E22E4D22E2FE0DA
:1002F000E22EF12C612C32E1732E0AE710E04AE085
:10030000242E312C412C512CB301C801A2019101A2
:1003100091D3672B682B692B71F481E0A81AB1087F
:1003200051F039018A01C701B601A201910182D3BE
:1003300069017A01E9CFBE0180E090E09301A80154
:1003400060D32B013C01E1E04E1A510861087108AD
:100350008DE7A82E80E0B82EC0E0D0E08E01F50138
:10036000619171915F0180E090E0A701960149D30E
:100370009B01AC01640D751D861D971D5BD32F3F3E
:1003800031054105510529F020F02196CF30D105E6
:1003900029F7F801E259FF4F9081BC98C49889B7BA
:1003A0008F7B89BF1092B6002EBD90BFDF91CF9199
:1003B0001F910F91FF90EF90DF90CF90BF90AF9083
:1003C0007F906F905F904F903F902F900895909105
:1003D000A6009F3F59F09091A7009F3F51F0909148
:1003E000A8009F3F99F422E030E005C020E030E013
:1003F00002C021E030E0F901EA55FF4F8083220F6F
:10040000331FF901E056FF4F718360830895EFB108
:10041000E17009F457C00AC2FFCFB898B299FECF75
:10042000F8EFFDB9FEE6FEB9F6E0F093AB00F6C1D9
:10043000FFCF2F933F934F935F936F937F938F9350
:100440009F93AF93BF93EF93FF9380919C00F7D15D
:10045000082EFF91EF91BF91AF919F918F917F9166
:100460006F915F914F913F912F9100FC1DC0B89803
:10047000F8B7F1FFFDCFF8EEFDB9F1E6FEB9F0E017
:10048000F093AB00CBC1FFCFEFB1B299FECFE093B9
:100490009C001FB8B89AF8EFFDB9FEE6FEB9F5E08A
:1004A000F093AB00BBC1FFCFB898F8B7F1FFFDCF19
:1004B000F8EEFDB9F2E6FEB9FEB9F4E0F093AB0058
:1004C000ADC1FFCF2F933F934F935F936F937F9374
:1004D0008F939F93AF93BF93EF93FF93C5D18FB942
:1004E000B89AFF91EF91BF91AF919F918F917F91BA
:1004F0006F915F914F913F912F91F8B7F1FFFDCF31
:10050000F8EEFDB9F2E6FEB9FEB9F3E0F093AB0008
:1005100085C1FFCFEFB10E2E0694F091A600F01525
:10052000F0E059F0F091A700F015F1E031F0F09112
:10053000A800F015F2E009F079C1F093AA00B29991
:10054000FECF1FB8B89AF8EFFDB9FEE6FEB9F1E0AC
:10055000E0FFF2E0F093AB0061C1FFCF8111109298
:10056000AC008091AC00813011F1A0F0823081F5B7
:100570008091AD009091AE009C012F5F3F4F2F7195
:100580003327807E822B932B9093AE008093AD0017
:1005900081E008958091AD0090E0962B9F77909335
:1005A000AE008093AD0081E08093AC00089580910F
:1005B000AD009091AE008827862B9F779093AE0078
:1005C0008093AD0082E08093AC008091AF000895ED
:1005D00080E008958091AC00882319F0823021F0EA
:1005E00019C08091AD0008952091AD003091AE000A
:1005F000233382E0380728F4F901E25EFF4F84914B
:1006000001C08FEF2F5F3F4F3F773093AE002093B5
:10061000AD00089580E0089590919F00292F21500A
:1006200010F00000FCCF9F5F9A3218F490939F0067
:1006300002C010929F006C7F862B80939E0081E009
:10064000089590919D00292F215010F00000FCCFBB
:100650009F5F9A3218F490939D0002C010929D0003
:10066000811182E090919E00892B089581BF0895A9
:10067000CF93DF93C091B10091E09C0F9093B100B4
:10068000D0E0C055DF4F8A83923058F08091B2009D
:100690009091B3009095891302C0FB0109951092C7
:1006A000B000DF91CF910895882321F01092B0001F
:1006B0001092B1009091B0009230A9F0862F933043
:1006C00040F4992359F0913009F046C066E373E095
:1006D00026C0933011F1943021F13EC06093B000F8
:1006E0001092B10039C0E091B10081E08E0F80938B
:1006F000B100F0E0E055FF4F6283823068F19091E5
:10070000B2008091B3008095981304C0923010F429
:100710001092AF001092B0001FC060EE73E0A8DF2F
:100720001BC0E091B10091E09E0F9093B100F0E00A
:10073000E055FF4F6283943078F08091B200909141
:10074000B3002091B4003091B50020953095821708
:10075000930701F7A9DDDECF81E0089581111092A2
:10076000B1008091B000823051F020F4813031F539
:1007700081B721C0833031F0843039F01FC08091BF
:10078000AF0019C08091B70016C0E091B100E1112F
:1007900008C09091B8008091B9009093B200809306
:1007A000B30091E09E0F9093B100F0E0E055FF4F51
:1007B0008281943020F01092B000089580E0089576
:1007C000833010F48093B70008951F920F920FB6F4
:1007D0000F9211248F93BC98C49889B78F7B89BFDF
:1007E0001092B6008F910F900FBE0F901F9018952A
:1007F000FF93F5EFF2BFF2E0F8BFFFB7FF930F9260
:100800001F92EF931124E0E6F0E00090AB00000CA3
:10081000E00DF11D0190F081E02D0994EF911F9002
:100820000F90FF91FFBFFF911895FFCFF8EAFDB938
:10083000F0E6FEB9FFEFF093AA00F0CFFFCFE09112
:10084000AA00F0E0EE0FFF1FE056FF4F0190F0818D
:10085000E02D32960590F491E02D682F8091A9004B
:1008600009951092A9000895E091AA00F0E0EE0F1A
:10087000FF1FE056FF4F0190F081E02D0590F491AD
:10088000E02D8091A90009951092A90008951F926A
:100890000F920FB60F9211248F93B898B29B02C09B
:1008A000B09BFCCFB09902C088EE8DB981EE8EB9B5
:1008B0001092AB008FEF8093AA0081E08093A90093
:1008C0008F910F900FBE0F901F9018951092AB0054
:1008D0008FEF8093AA001092A90043E050E06FEFE1
:1008E00070E086EA90E0C8D013BE12BE19BC18BCF6
:1008F00089B7857E89BF8AE188BF8CB58E7F8CBD24
:100900008CB58F778CBD1ABC82E083BFC09AB89833
:10091000C29ABA9A88EA8DB980EE8EB9C4E0ECEA40
:10092000F0E0DF018C2F1D928A95E9F761E572E016
:1009300080E54DDDE6EBF0E0DF011D92CA95E9F7B9
:10094000C398BB98BC98C4988FE39CE90197F1F7D2
:1009500000C0000089B78F7B89BF17BC8CB58F782A
:100960008CBD1FBC1EBC1BBC1DBC80E488BF89B7EE
:10097000806489BF8DE392E097DC86E0E0EBF0E0F5
:10098000DF011D928A95E9F765E572E08FE21FDDD0
:1009900069E572E087E71BDD9AE088E10FB6F8941D
:1009A000A89581BD0FBE91BD789420E431E0A89553
:1009B0008091B7008823A9F0A8958091B70088237B
:1009C00081F08130C9F79091B6009111F5CFBC9AB2
:1009D000C49A1FBC28BF99B7906499BF8093B60092
:1009E000EBCF8091B6008111E2CFB399E0CFBC9AF2
:1009F000C49A1FBC28BF89B7806489BF3093B600F2
:100A0000D6CFEE27FF27AA27BB2708C0A20FB31F08
:100A1000E41FF51F220F331F441F551F969587951E
:100A20007795679598F37040A9F7009799F7BD01FE
:100A3000CF010895A1E21A2EAA1BBB1BFD010DC018
:100A4000AA1FBB1FEE1FFF1FA217B307E407F5077E
:100A500020F0A21BB30BE40BF50B661F771F881F5A
:100A6000991F1A9469F760957095809590959B01F0
:100A7000AC01BD01CF010895DC0101C06D9341506F
:0A0A80005040E0F70895F894FFCF0E
:100A8A008A02620254020D0244021902070201029A
:100A9A00030405060708090A0B0C0D0E0F010002D4
:100AAA00000400080010002000400080000001003F
:0C0ABA00020004000800100020004000B2
:00000001FF
